:100000000C9437000C94D0010C94D0010C94D001C6
:100010000C94D0010C94D0010C94D0010C94D0011C
:100020000C94D0010C94D0010C94D0010C94D0010C
:100030000C94D0010C94D0010C94D0010C94D001FC
:100040000C94D0010C94D0010C94D0010C94D001EC
:100050000C94D0010C94D0010C94D0010C94D001DC
:100060000C94D0010C94D0010100012880001124CF
:100070001FBECFEFD8E0DEBFCDBFE8E6F0E040E046
:1000800017C0B591A59135912591059107FD0CC03B
:1000900095918591EF01F92FE82F05900D92A21708
:1000A000B307D9F7FE0104C01D92A217B307E1F709
:1000B000ED36F40731F70E9407010C945F00F894C5
:0200C000FFCF70
:1000C200496E696369616E646F20436F6D756E6915
:0600D200636163616F0031
:1000D8004F925F926F927F928F929F92AF92BF9250
:1000E800CF92DF92EF92FF920F931F93CF93DF93FC
:1000F800DC014B013A0140E050E0A12CB12C412C2D
:10010800512C00E010E0C0E0D0E0E12CF12C81E0BF
:1001180090E051C06191613309F043C0423051050C
:1001280019F13CF44115510559F04130510591F050
:1001380038C04330510511F14430510549F131C0FF
:100148006C01022E02C0CC0CDD1C0A94E2F70C0DE7
:100158001D1D27C06C01022E02C0CC0CDD1C0A94A8
:10016800E2F74C0C5D1C1DC06C01022E02C0CC0CC9
:10017800DD1C0A94E2F7EC0CFD1C13C06C01022E86
:1001880002C0CC0CDD1C0A94E2F7CC0DDD1D09C0C1
:100198006C01022E02C0CC0CDD1C0A94E2F7AC0CF8
:1001A800BD1C2150310908F0B5CF18964F5F5F4F3D
:1001B8004530510539F02C91222321F0FD0127E02B
:1001C80030E0A8CFB801640D751D6E0D7F1D6C0F52
:1001D8007D1FA616B70631F4F401F182E082F3011F
:1001E80011830083DF91CF911F910F91FF90EF90C2
:1001F800DF90CF90BF90AF909F908F907F906F903F
:060208005F904F90089585
:10020E00CF93DF93CDB7DEB76C970FB6F894DEBF02
:10021E000FBECDBF1A8219821C821B8222EC30E0E7
:10022E0040E086E1F901DE011596742F0E94B201BD
:10023E008AE090E09C8F8B8F0E94A501CE010596DF
:10024E000E949601CE014B960E9496010E94BF011C
:10025E0084E085B914E02FEF83ED90E321508040C8
:10026E009040E1F700C000000E945A010E94780100
:10027E00AE014D5F5F4FBE016F5F7F4F80E091E03B
:10028E000E946C002FEF83E294EF2150804090404B
:10029E00E1F700C000008B819C81CC9714F41BB950
:0602AE00DACF1BB8D8CF27
:1002B4002FEF87EA91E6215080409040E1F700C09B
:1002C40000008FEF84B915B82FEF80EE90E0215035
:1002D40080409040E1F700C0000084E085B925E04B
:0C02E4002A95F1F700008BEF84B9089513
:1002F0001A99FECF1A9BFECF1A99FECFE0E0F1E0EB
:1003000028E231E093E051E340E31A9BFECF95BD34
:1003100016BC1A99FECF86B5893010F4408301C00F
:0C03200050833196E217F30781F708952F
:10032C00CF93DF93EC018881882331F021960E94D2
:0E033C00C80189918111FBCFDF91CF91089507
:10034A0087E690E09093C5008093C40088E9809383
:0A035A00C10086E08093C200089500
:10036400992777FD05C005900D920197E1F708954F
:0A03740001900D920197E1F7089542
:10037E008FEF84B915B887B918B88EEF8AB91BB844
:02038E000895D0
:100390008093C600E0ECF0E0808185FFFDCF0895FA
:0403A0000C940000B9
:00000001FF
